:100000000C945C000C946E000C946E000C946E00CA
:100010000C946E000C946E000C946E000C946E00A8
:100020000C946E000C946E000C946E000C946E0098
:100030000C946E000C946E000C946E000C946E0088
:100040000C948C010C946E000C946E000C946E0059
:100050000C946E000C946E000C946E000C946E0068
:100060000C946E000C946E00000000080002010069
:100070000003040700000000000000000000000072
:10008000250028002B0000000000240027002A0083
:10009000040404040404040402020202020203032E
:1000A0000303030301020408102040800102040836
:1000B000102001020408102011241FBECFEFD8E049
:1000C000DEBFCDBF21E0A0E0B1E001C01D92A930AC
:1000D000B207E1F70E94D6010C942E020C940000A6
:1000E000EDEAF0E02491E9E9F0E08491882399F0C9
:1000F00090E0880F991FFC01EA57FF4FA591B4913A
:10010000FC01E458FF4F859194918FB7F894EC91DE
:10011000E22BEC938FBF0895E1E7F0E02491EDEA44
:10012000F0E09491E9E9F0E0E491EE23C9F02223B4
:1001300039F0233001F1A8F4213019F1223029F1EE
:10014000F0E0EE0FFF1FE458FF4FA591B4912FB7D9
:10015000F894EC91811126C090959E239C932FBF1B
:1001600008952730A9F02830C9F0243049F72091AC
:1001700080002F7D03C0209180002F772093800086
:10018000DFCF24B52F7724BDDBCF24B52F7DFBCF68
:100190002091B0002F772093B000D2CF2091B000F3
:1001A0002F7DF9CF9E2BDACF3FB7F89480910501D0
:1001B00090910601A0910701B091080126B5A89B76
:1001C00005C02F3F19F00196A11DB11D3FBFBA2FE9
:1001D000A92F982F8827BC01CD01620F711D811DA9
:1001E000911D42E0660F771F881F991F4A95D1F72E
:1001F00008958F929F92AF92BF92CF92DF92EF922B
:10020000FF926B017C010E94D4004B015C01C11480
:10021000D104E104F104B9F00E94D400681979090D
:100220008A099B09683E73408105910580F321E0AE
:10023000C21AD108E108F10888EE880E83E0981E02
:10024000A11CB11CE4CFFF90EF90DF90CF90BF9046
:10025000AF909F908F900895CF93C82F0E94700009
:10026000E1E7F0E0E491E330C9F140F4E130C9F0B6
:10027000E23071F180E00E948C0018C0E730D1F1CB
:10028000E83009F440C0E430A9F780918000806232
:100290008093800083E090E090938B0080938A00AD
:1002A00005C084B5806884BD83E087BD6C2F70E095
:1002B00090E080E00E94F9000E94700080E00E94BF
:1002C0008C006CE271E080E090E0CF910C94F9003A
:1002D00084B5806284BD83E088BDE8CF80918000D2
:1002E00080688093800083E090E090938900809301
:1002F0008800DCCF8091B00080688093B00083E0FC
:100300008093B300D3CF8091B00080628093B0001F
:1003100083E08093B400CACF1F920F920FB60F9262
:1003200011242F933F938F939F93AF93BF9380910B
:10033000010190910201A0910301B091040130915B
:10034000000123E0230F2D3758F50196A11DB11DA3
:10035000209300018093010190930201A093030177
:10036000B09304018091050190910601A0910701CD
:10037000B09108010196A11DB11D809305019093D4
:100380000601A0930701B0930801BF91AF919F911F
:100390008F913F912F910F900FBE0F901F90189546
:1003A00026E8230F0296A11DB11DD2CF789484B503
:1003B000826084BD84B5816084BD85B5826085BD61
:1003C00085B5816085BD80916E00816080936E00EF
:1003D00010928100809181008260809381008091E1
:1003E0008100816080938100809180008160809392
:1003F00080008091B10084608093B1008091B00052
:1004000081608093B00080917A00846080937A004C
:1004100080917A00826080937A0080917A00816076
:1004200080937A0080917A00806880937A0010929D
:10043000C1000E947000C0E0D0E08FEF0E942C014C
:1004400088EC0E942C0188EC0E942C0188EC0E9410
:100450002C01209791F30E940000EFCFF894FFCF7A
:00000001FF
