:100000000C9461000C9473000C9473000C947300B6
:100010000C9473000C9473000C9473000C94730094
:100020000C9473000C9473000C9473000C94730084
:100030000C9473000C9473000C9473000C94730074
:100040000C94C9000C9473000C9473000C9473000E
:100050000C9473000C9473000C9473000C94730054
:100060000C9473000C94730000000000240027001F
:100070002A000000000023002600290000000000E4
:10008000250028002B0004040404040404040202D4
:100090000202020203030303030301020408102007
:1000A0004080010204081020010204081020000012
:1000B0000008000201000003040700000000000027
:1000C000000011241FBECFEFD8E0DEBFCDBF21E07E
:1000D000A0E0B1E001C01D92AB30B207E1F70E9491
:1000E00013010C94DB010C940000833081F028F4A0
:1000F000813099F08230A9F008958730A9F08830D6
:10010000C9F08430B1F4809180008F7D03C080916C
:1001100080008F7780938000089584B58F7784BDA9
:10012000089584B58F7DFBCF8091B0008F77809349
:10013000B00008958091B0008F7DF9CF1F93CF93C9
:10014000DF93EBEBF0E09491E7EAF0E0D491E3E9A0
:10015000F0E0C491CC23B9F0182F992319F0892F1E
:100160000E947500EC2FF0E0EE0FFF1FE458FF4FE8
:10017000A591B4918FB7F894EC91111108C0D09566
:10018000DE23DC938FBFDF91CF911F910895DE2B8B
:10019000F8CF1F920F920FB60F9211242F933F9317
:1001A0008F939F93AF93BF93809107019091080124
:1001B000A0910901B0910A013091060123E0230FBB
:1001C0002D3758F50196A11DB11D2093060180938E
:1001D000070190930801A0930901B0930A0180914F
:1001E000020190910301A0910401B09105010196D3
:1001F000A11DB11D8093020190930301A0930401FE
:10020000B0930501BF91AF919F918F913F912F9135
:100210000F900FBE0F901F90189526E8230F02969F
:10022000A11DB11DD2CF789484B5826084BD84B500
:10023000816084BD85B5826085BD85B5816085BDE1
:1002400080916E00816080936E0010928100809199
:100250008100826080938100809181008160809321
:100260008100809180008160809380008091B10046
:1002700084608093B1008091B00081608093B00071
:1002800080917A00846080937A0080917A00826005
:1002900080937A0080917A00816080937A008091C7
:1002A0007A00806880937A001092C100E7EAF0E05B
:1002B0002491E3E9F0E08491882399F090E0880F9D
:1002C000991FFC01E859FF4FA591B491FC01E45836
:1002D000FF4F859194918FB7F894EC91E22BEC93BA
:1002E0008FBFCCE9D0E0FE01249108E810E0F801CE
:1002F00084918823C9F090E0880F991FFC01E85988
:10030000FF4FA591B491FC01E458FF4F45915491E2
:100310003FB7F8949C91822F809598239C93FA0183
:100320009081892380833FBF90EBE92E90E0F92EE6
:1003300020E0C22E20E0D22EAA24A394B12CF701F3
:100340008491FE019490F80184908820B9F0811185
:100350000E947500E82DF0E0EE0FFF1FEE58FF4FF2
:10036000A591B4918C91982249F0809100019091CF
:100370000101019690930101809300018091000199
:10038000909101018230910579F08330910571F0EF
:10039000019719F481E00E949E00C114D10409F470
:1003A000CECF0E940000CBCF80E0F5CFB09201010C
:0A03B000A0920001F2CFF894FFCFF5
:00000001FF
